{
  "abi": [
    {
      "inputs": [],
      "stateMutability": "nonpayable",
      "type": "constructor"
    },
    {
      "inputs": [
        {
          "internalType": "address",
          "name": "caller",
          "type": "address"
        }
      ],
      "name": "WillError__DidWithdraw",
      "type": "error"
    },
    {
      "inputs": [],
      "name": "WillError__InheritorExist",
      "type": "error"
    },
    {
      "inputs": [],
      "name": "WillError__NotAllowedYet",
      "type": "error"
    },
    {
      "inputs": [
        {
          "internalType": "address",
          "name": "caller",
          "type": "address"
        }
      ],
      "name": "WillError__NotInheritor",
      "type": "error"
    },
    {
      "inputs": [
        {
          "internalType": "address",
          "name": "caller",
          "type": "address"
        }
      ],
      "name": "WillError__NotOwner",
      "type": "error"
    },
    {
      "inputs": [
        {
          "internalType": "uint8",
          "name": "maxPercentage",
          "type": "uint8"
        }
      ],
      "name": "WillError__NotValidPercentage",
      "type": "error"
    },
    {
      "inputs": [],
      "name": "WillError__NotValidUpdate",
      "type": "error"
    },
    {
      "inputs": [
        {
          "internalType": "uint256",
          "name": "requestTimestamp",
          "type": "uint256"
        }
      ],
      "name": "WillError__RequestAlreadyExist",
      "type": "error"
    },
    {
      "inputs": [],
      "name": "WillError__YouAllowToWithdraw",
      "type": "error"
    },
    {
      "inputs": [
        {
          "internalType": "string",
          "name": "description",
          "type": "string"
        },
        {
          "internalType": "address",
          "name": "_inheritor",
          "type": "address"
        },
        {
          "internalType": "uint8",
          "name": "_percentage",
          "type": "uint8"
        }
      ],
      "name": "addInheritor",
      "outputs": [],
      "stateMutability": "nonpayable",
      "type": "function"
    },
    {
      "inputs": [
        {
          "internalType": "uint256",
          "name": "newDuration",
          "type": "uint256"
        }
      ],
      "name": "changeDuration",
      "outputs": [],
      "stateMutability": "nonpayable",
      "type": "function"
    },
    {
      "inputs": [
        {
          "internalType": "uint256",
          "name": "_fromLastUpdate",
          "type": "uint256"
        }
      ],
      "name": "changeFromLastUpdate",
      "outputs": [],
      "stateMutability": "nonpayable",
      "type": "function"
    },
    {
      "inputs": [
        {
          "internalType": "address",
          "name": "_inheritor",
          "type": "address"
        },
        {
          "internalType": "uint8",
          "name": "newPercentage",
          "type": "uint8"
        }
      ],
      "name": "changeInheritorPersantage",
      "outputs": [],
      "stateMutability": "nonpayable",
      "type": "function"
    },
    {
      "inputs": [
        {
          "internalType": "address payable",
          "name": "_mainInheritor",
          "type": "address"
        }
      ],
      "name": "changeMainInheritor",
      "outputs": [],
      "stateMutability": "nonpayable",
      "type": "function"
    },
    {
      "inputs": [
        {
          "internalType": "address",
          "name": "inheritor",
          "type": "address"
        },
        {
          "internalType": "address",
          "name": "token",
          "type": "address"
        }
      ],
      "name": "didWithdraw",
      "outputs": [
        {
          "internalType": "bool",
          "name": "",
          "type": "bool"
        }
      ],
      "stateMutability": "nonpayable",
      "type": "function"
    },
    {
      "inputs": [],
      "name": "getAvailablePercentage",
      "outputs": [
        {
          "internalType": "uint8",
          "name": "",
          "type": "uint8"
        }
      ],
      "stateMutability": "view",
      "type": "function"
    },
    {
      "inputs": [],
      "name": "getDuration",
      "outputs": [
        {
          "internalType": "uint256",
          "name": "",
          "type": "uint256"
        }
      ],
      "stateMutability": "view",
      "type": "function"
    },
    {
      "inputs": [
        {
          "internalType": "address",
          "name": "add",
          "type": "address"
        }
      ],
      "name": "getInheritor",
      "outputs": [
        {
          "components": [
            {
              "internalType": "string",
              "name": "description",
              "type": "string"
            },
            {
              "internalType": "uint8",
              "name": "percentage",
              "type": "uint8"
            },
            {
              "internalType": "uint256",
              "name": "id",
              "type": "uint256"
            }
          ],
          "internalType": "struct Inheritor",
          "name": "",
          "type": "tuple"
        }
      ],
      "stateMutability": "view",
      "type": "function"
    },
    {
      "inputs": [],
      "name": "getInheritorCount",
      "outputs": [
        {
          "internalType": "uint8",
          "name": "",
          "type": "uint8"
        }
      ],
      "stateMutability": "view",
      "type": "function"
    },
    {
      "inputs": [
        {
          "internalType": "address",
          "name": "_inheritor",
          "type": "address"
        }
      ],
      "name": "getInheritorPercentage",
      "outputs": [
        {
          "internalType": "uint8",
          "name": "",
          "type": "uint8"
        }
      ],
      "stateMutability": "view",
      "type": "function"
    },
    {
      "inputs": [],
      "name": "getLastUpdate",
      "outputs": [
        {
          "internalType": "uint256",
          "name": "",
          "type": "uint256"
        }
      ],
      "stateMutability": "view",
      "type": "function"
    },
    {
      "inputs": [],
      "name": "getRequestWithdraw",
      "outputs": [
        {
          "components": [
            {
              "internalType": "bool",
              "name": "requestExsit",
              "type": "bool"
            },
            {
              "internalType": "uint256",
              "name": "timestamp",
              "type": "uint256"
            },
            {
              "internalType": "address",
              "name": "caller",
              "type": "address"
            }
          ],
          "internalType": "struct RequestWithdraw",
          "name": "",
          "type": "tuple"
        }
      ],
      "stateMutability": "view",
      "type": "function"
    },
    {
      "inputs": [
        {
          "internalType": "address",
          "name": "token",
          "type": "address"
        }
      ],
      "name": "getYourCurrentAmount",
      "outputs": [
        {
          "internalType": "uint256",
          "name": "",
          "type": "uint256"
        }
      ],
      "stateMutability": "view",
      "type": "function"
    },
    {
      "inputs": [
        {
          "internalType": "address",
          "name": "token",
          "type": "address"
        }
      ],
      "name": "inheritorWithdraw",
      "outputs": [],
      "stateMutability": "nonpayable",
      "type": "function"
    },
    {
      "inputs": [
        {
          "internalType": "uint256",
          "name": "_duration",
          "type": "uint256"
        },
        {
          "internalType": "uint256",
          "name": "_fromLastUpdate",
          "type": "uint256"
        },
        {
          "internalType": "address",
          "name": "_mainInheritor",
          "type": "address"
        },
        {
          "internalType": "address",
          "name": "_owner",
          "type": "address"
        }
      ],
      "name": "init",
      "outputs": [],
      "stateMutability": "nonpayable",
      "type": "function"
    },
    {
      "inputs": [],
      "name": "initiated",
      "outputs": [
        {
          "internalType": "bool",
          "name": "",
          "type": "bool"
        }
      ],
      "stateMutability": "view",
      "type": "function"
    },
    {
      "inputs": [],
      "name": "isWithdrawMode",
      "outputs": [
        {
          "internalType": "bool",
          "name": "",
          "type": "bool"
        }
      ],
      "stateMutability": "view",
      "type": "function"
    },
    {
      "inputs": [],
      "name": "mainInheritor",
      "outputs": [
        {
          "internalType": "address",
          "name": "",
          "type": "address"
        }
      ],
      "stateMutability": "view",
      "type": "function"
    },
    {
      "inputs": [],
      "name": "owner",
      "outputs": [
        {
          "internalType": "address",
          "name": "",
          "type": "address"
        }
      ],
      "stateMutability": "view",
      "type": "function"
    },
    {
      "inputs": [],
      "name": "pauseWithdraw",
      "outputs": [],
      "stateMutability": "nonpayable",
      "type": "function"
    },
    {
      "inputs": [
        {
          "internalType": "address",
          "name": "_inheritor",
          "type": "address"
        }
      ],
      "name": "removeInheritor",
      "outputs": [],
      "stateMutability": "nonpayable",
      "type": "function"
    },
    {
      "inputs": [],
      "name": "requestToWithdraw",
      "outputs": [],
      "stateMutability": "nonpayable",
      "type": "function"
    },
    {
      "inputs": [],
      "name": "self",
      "outputs": [
        {
          "internalType": "address",
          "name": "",
          "type": "address"
        }
      ],
      "stateMutability": "view",
      "type": "function"
    }
  ],
  "bytecode": {
    "object": "0x60a060405234801561001057600080fd5b50306080526080516121ee6100766000396000818161023f015281816103520152818161044c015281816104a4015281816104ff0152818161056401528181610603015281816106a0015281816106f101528181610742015261079301526121ee6000f3fe608060405234801561001057600080fd5b50600436106101575760003560e01c806376a162e8116100c3578063a6429e3e1161007c578063a6429e3e146102ec578063ad2e8c9b146102f4578063b594f086146102fc578063b6a2b4f21461030f578063cf701f3114610322578063deb999a41461033557600080fd5b806376a162e8146102795780637b3fc7751461028c5780637d4d685d146102c15780638da5cb5b146102c9578063903c939c146102d15780639f118536146102e457600080fd5b80634d6a6c05116101155780634d6a6c05146101e65780636155e3de146101f957806362394b0214610201578063648bc268146102145780636c0007fd146102275780637104ddb21461023a57600080fd5b80629109ae1461015c578063102a842a146101665780631a61d4bb146101855780633824438a146101a55780633dc0c9eb146101bd5780634c89867f146101d0575b600080fd5b610164610348565b005b61016e6103a3565b60405160ff90911681526020015b60405180910390f35b610198610193366004611cf1565b6103b2565b60405161017c9190611d0e565b6101ad6103e8565b604051901515815260200161017c565b6101ad6101cb366004611d7c565b6103f2565b6101d861042f565b60405190815260200161017c565b6101646101f4366004611ddc565b610442565b61016461049a565b6101d861020f366004611cf1565b6104ea565b610164610222366004611eae565b6104f5565b61016e610235366004611cf1565b61054f565b6102617f000000000000000000000000000000000000000000000000000000000000000081565b6040516001600160a01b03909116815260200161017c565b610164610287366004611ef8565b61055a565b6102946105ae565b6040805182511515815260208084015190820152918101516001600160a01b03169082015260600161017c565b61016e6105d3565b6102616105dd565b6101646102df366004611f11565b6105f9565b6101ad61064f565b610261610665565b6101d8610683565b61016461030a366004611ef8565b610696565b61016461031d366004611cf1565b6106e7565b610164610330366004611cf1565b610738565b610164610343366004611cf1565b610789565b6001600160a01b037f00000000000000000000000000000000000000000000000000000000000000001630036103995760405162461bcd60e51b815260040161039090611f46565b60405180910390fd5b6103a16107da565b565b60006103ad610954565b905090565b6103d9604051806060016040528060608152602001600060ff168152602001600081525090565b6103e28261096a565b92915050565b60006103ad610a7a565b60006103fc610a9f565b6001600160a01b039384166000908152600d91909101602090815260408083209490951682529290925250205460ff1690565b6000610439610a9f565b60070154905090565b6001600160a01b037f000000000000000000000000000000000000000000000000000000000000000016300361048a5760405162461bcd60e51b815260040161039090611f46565b610495838383610acd565b505050565b6001600160a01b037f00000000000000000000000000000000000000000000000000000000000000001630036104e25760405162461bcd60e51b815260040161039090611f46565b6103a1610dab565b60006103e282610e6b565b6001600160a01b037f000000000000000000000000000000000000000000000000000000000000000016300361053d5760405162461bcd60e51b815260040161039090611f46565b61054984848484610ee5565b50505050565b60006103e282611079565b6001600160a01b037f00000000000000000000000000000000000000000000000000000000000000001630036105a25760405162461bcd60e51b815260040161039090611f46565b6105ab816110e9565b50565b60408051606081018252600080825260208201819052918101919091526103ad61115c565b60006103ad6111b9565b60006105e7610a9f565b600101546001600160a01b0316919050565b6001600160a01b037f00000000000000000000000000000000000000000000000000000000000000001630036106415760405162461bcd60e51b815260040161039090611f46565b61064b82826111cf565b5050565b6000610659610a9f565b600f015460ff16919050565b600061066f610a9f565b5461010090046001600160a01b0316919050565b600061068d610a9f565b60060154905090565b6001600160a01b037f00000000000000000000000000000000000000000000000000000000000000001630036106de5760405162461bcd60e51b815260040161039090611f46565b6105ab816113d7565b6001600160a01b037f000000000000000000000000000000000000000000000000000000000000000016300361072f5760405162461bcd60e51b815260040161039090611f46565b6105ab81611443565b6001600160a01b037f00000000000000000000000000000000000000000000000000000000000000001630036107805760405162461bcd60e51b815260040161039090611f46565b6105ab816117bc565b6001600160a01b037f00000000000000000000000000000000000000000000000000000000000000001630036107d15760405162461bcd60e51b815260040161039090611f46565b6105ab816119f1565b6107e2610a9f565b336000908152600b91909101602052604090205460ff1661081857604051639561090f60e01b8152336004820152602401610390565b610820610a7a565b1561083e5760405163666473a960e11b815260040160405180910390fd5b610846610a9f565b6002015460ff161561087b5761085a610a9f565b60030154604051634f3ab6fd60e01b81526004810191909152602401610390565b610883610a9f565b6008015461088f610a9f565b6007015461089d9190611f85565b4210156108bc5760405162474ce560e51b815260040160405180910390fd5b604080516060810182526001815242602082015233918101919091526108e0610a9f565b815160028201805460ff191691151591909117905560208201516003820155604091820151600490910180546001600160a01b0319166001600160a01b0390921691909117905551429033907f07e555d31c391b94547e423474b1d68d2cf63f75399a29d5f902f58647fc752290600090a3565b600061095e610a9f565b6005015460ff16919050565b610991604051806060016040528060608152602001600060ff168152602001600081525090565b610999610a9f565b600c016000836001600160a01b03166001600160a01b031681526020019081526020016000206040518060600160405290816000820180546109da90611f98565b80601f0160208091040260200160405190810160405280929190818152602001828054610a0690611f98565b8015610a535780601f10610a2857610100808354040283529160200191610a53565b820191906000526020600020905b815481529060010190602001808311610a3657829003601f168201915b5050509183525050600182015460ff16602082015260029091015460409091015292915050565b6000600160f81b610a89610a9f565b5460f81b166001600160f81b0319161515919050565b6000806103e260017f1560e407cdf6c26ec392c513c01a180ea1e662d5e34bf6c5ccc7fdd45ea01873611fd2565b610ad5610a9f565b600101546001600160a01b031633141580610aef57503330145b15610b0f57604051633be38c4b60e21b8152336004820152602401610390565b610b17611a72565b6001600160a01b038216610b665760405162461bcd60e51b8152602060048201526016602482015275696e68657269746f722061646472657373207a65726f60501b6044820152606401610390565b8060ff16600003610bb95760405162461bcd60e51b815260206004820152601860248201527f70657263656e746167652063616e2774206265207a65726f00000000000000006044820152606401610390565b610bc1610a9f565b6001600160a01b0383166000908152600b91909101602052604090205460ff1615610bff576040516303bf037160e21b815260040160405180910390fd5b610c07610a9f565b6009015460ff9081169082161115610c4457610c21610a9f565b60090154604051634cdbb12560e01b815260ff9091166004820152602401610390565b80610c4d610a9f565b6009018054600090610c6390849060ff16611fe5565b92506101000a81548160ff021916908360ff16021790555060405180606001604052808481526020018260ff168152602001610c9d610a9f565b6005015460ff169052610cae610a9f565b6001600160a01b0384166000908152600c919091016020526040902081518190610cd8908261204c565b5060208201516001828101805460ff191660ff90931692909217909155604090920151600290910155610d09610a9f565b6005018054600090610d1f90849060ff1661210c565b92506101000a81548160ff021916908360ff1602179055506001610d41610a9f565b6001600160a01b0384166000818152600b929092016020526040808320805460ff191694151594909417909355915160ff841692917f1b3695f3ce614908bb53025af46aa9b98dd3aee14d9f06c354bbd6f6bdf4513991a342610da2610a9f565b60070155505050565b610db3610a9f565b600101546001600160a01b031633141580610dcd57503330145b15610ded57604051633be38c4b60e21b8152336004820152602401610390565b610df5611a72565b610dfd610a7a565b610e3f5760405162461bcd60e51b8152602060048201526013602482015272139bc81b995959081d1bc8189b1bd8dac81a5d606a1b6044820152606401610390565b610e47611ab4565b610e4f611a72565b42610e58610a9f565b6007015542610e65610a9f565b60070155565b6000610e75610a9f565b336000908152600b91909101602052604090205460ff16610eab57604051639561090f60e01b8152336004820152602401610390565b610eb3610a9f565b336000908152600c91909101602052604090206001015460ff16610ed683611ad2565b6103e29190612125565b919050565b610eed610a9f565b600f015460ff1615610f415760405162461bcd60e51b815260206004820152601860248201527f77696c6c20616c726561647920696e697469616c697a656400000000000000006044820152606401610390565b33610f4b57600080fd5b6001600160a01b038116610fa15760405162461bcd60e51b815260206004820152601b60248201527f6f776e65722063616e27742062652061646472657373207a65726f00000000006044820152606401610390565b80610faa610a9f565b60010180546001600160a01b0319166001600160a01b0392909216919091179055610fd88462015180612125565b610fe0610a9f565b60060155610ff18362015180612125565b610ff9610a9f565b6008015581611006610a9f565b80546001600160a01b039290921661010002610100600160a81b03199092169190911790556064611035610a9f565b600901805460ff191660ff9290921691909117905542611053610a9f565b600701556001611061610a9f565b600f01805460ff191691151591909117905550505050565b6000611083610a9f565b336000908152600b91909101602052604090205460ff166110b957604051639561090f60e01b8152336004820152602401610390565b6110c1610a9f565b6001600160a01b03929092166000908152600c90920160205250604090206001015460ff1690565b6110f1610a9f565b600101546001600160a01b03163314158061110b57503330145b1561112b57604051633be38c4b60e21b8152336004820152602401610390565b611133611a72565b6111408162015180612125565b611148610a9f565b6008015542611155610a9f565b6007015550565b6040805160608101825260008082526020820181905291810191909152611181610a9f565b60408051606081018252600283015460ff1615158152600383015460208201526004909201546001600160a01b031690820152919050565b60006111c3610a9f565b6009015460ff16919050565b6111d7610a9f565b600101546001600160a01b0316331415806111f157503330145b1561121157604051633be38c4b60e21b8152336004820152602401610390565b611219611a72565b611221610a9f565b6001600160a01b0383166000908152600b91909101602052604090205460ff16158061124e575060ff8116155b1561126c57604051631d3d4b1560e01b815260040160405180910390fd5b611274610a9f565b6001600160a01b0383166000908152600c91909101602052604090206001015460ff1661129f610a9f565b600901546112b0919060ff1661210c565b60ff168160ff161115611320576112c5610a9f565b6001600160a01b0383166000908152600c91909101602052604090206001015460ff166112f0610a9f565b60090154611301919060ff1661210c565b604051634cdbb12560e01b815260ff9091166004820152602401610390565b80611329610a9f565b6001600160a01b0384166000908152600c91909101602052604090206001015460ff16611354610a9f565b60090154611365919060ff1661210c565b61136f9190611fe5565b611377610a9f565b600901805460ff191660ff9290921691909117905580611395610a9f565b6001600160a01b0384166000908152600c9190910160205260409020600101805460ff191660ff92909216919091179055426113cf610a9f565b600701555050565b6113df610a9f565b600101546001600160a01b0316331415806113f957503330145b1561141957604051633be38c4b60e21b8152336004820152602401610390565b611421611a72565b61142e8162015180612125565b611436610a9f565b6006015542611155610a9f565b61144b610a9f565b336000908152600b91909101602052604090205460ff1661148157604051639561090f60e01b8152336004820152602401610390565b8061148a610a9f565b6002015460ff166114d65760405162461bcd60e51b81526020600482015260166024820152756e6f207265717565737420746f20776974686472617760501b6044820152606401610390565b6114de610a9f565b600301546114ea610a9f565b600601546114f89190611f85565b4210156115175760405162474ce560e51b815260040160405180910390fd5b61151f610a7a565b61152b5761152b611b71565b611533610a9f565b336000908152600d91909101602090815260408083206001600160a01b038516845290915290205460ff161561157e57604051630a37e75f60e01b8152336004820152602401610390565b611586610a9f565b6001600160a01b0382166000908152600a91909101602052604081205490036115d8576115b281611ad2565b6115ba610a9f565b6001600160a01b0383166000908152600a9190910160205260409020555b6115e0610a9f565b6001600160a01b0383166000908152600e9190910160205260408120805460ff169161160b8361213c565b91906101000a81548160ff021916908360ff160217905550506000611651611631610a9f565b336000908152600c91909101602052604090206001015460ff1684611b8b565b9050600161165d610a9f565b336000818152600d92909201602090815260408084206001600160a01b0389168552909152909120805460ff1916921515929092179091556116a190849083611bbd565b604051819033907f8093dea47014e67ffb37fb84f70ca5a0cabfb55bd642eb64f20d340a78f3523690600090a360006001600160a01b03841661800a1461174f576040516370a0823160e01b81523060048201526001600160a01b038516906370a0823190602401602060405180830381865afa158015611726573d6000803e3d6000fd5b505050506040513d601f19601f8201168201806040525081019061174a919061215b565b611751565b475b905061175b610a9f565b6001600160a01b0385166000908152600e91909101602052604090205460ff16611783610a9f565b6005015460ff1614801561179657508015155b1561054957610549846117a7610a9f565b5461010090046001600160a01b031683611bbd565b6117c4610a9f565b600101546001600160a01b0316331415806117de57503330145b156117fe57604051633be38c4b60e21b8152336004820152602401610390565b611806611a72565b61180e610a9f565b6001600160a01b0382166000908152600b91909101602052604090205460ff1661185657604051639561090f60e01b81526001600160a01b0382166004820152602401610390565b6000611860610a9f565b6001600160a01b0383166000908152600b9190910160205260409020805460ff19169115159190911790556001611895610a9f565b60050180546000906118ab90849060ff16611fe5565b92506101000a81548160ff021916908360ff16021790555060006118cd610a9f565b6001600160a01b0383166000908152600c91909101602090815260408083206001015481516060808201845281529283018490529082019290925260ff909116915081611918610a9f565b600901805460009061192e90849060ff1661210c565b92506101000a81548160ff021916908360ff1602179055508061194f610a9f565b6001600160a01b0385166000908152600c919091016020526040902081518190611979908261204c565b50602082015160018201805460ff191660ff9092169190911790556040909101516002909101556119a8610a9f565b6009015460405160ff909116906001600160a01b038516907f15ba3295a6448f7cc9bf4b69c1ff29fd9619427dc62a58b5aa02ce242106baa290600090a3505042611155610a9f565b6119f9610a9f565b600101546001600160a01b031633141580611a1357503330145b15611a3357604051633be38c4b60e21b8152336004820152602401610390565b611a3b611a72565b80611a44610a9f565b80546001600160a01b039290921661010002610100600160a81b031990921691909117905542611155610a9f565b611a7a610a9f565b6002015460ff16156103a157611a8e610a9f565b60028101805460ff191690556000600382015560040180546001600160a01b0319169055565b6000611abe610a9f565b805460ff191660f89290921c919091179055565b6000618009196001600160a01b03831601611af2576103e2606447612174565b6040516370a0823160e01b81523060048201526000906001600160a01b038416906370a0823190602401602060405180830381865afa158015611b39573d6000803e3d6000fd5b505050506040513d601f19601f82011682018060405250810190611b5d919061215b565b9050611b6a606482612174565b9392505050565b600160f81b611b7e610a9f565b5460f81b17611abe610a9f565b600082611b96610a9f565b6001600160a01b0384166000908152600a919091016020526040902054611b6a9190612125565b618009196001600160a01b03841601611c5e576000826001600160a01b03168260405160006040518083038185875af1925050503d8060008114611c1d576040519150601f19603f3d011682016040523d82523d6000602084013e611c22565b606091505b50509050806105495760405162461bcd60e51b81526020600482015260086024820152671d1e11985a5b195960c21b6044820152606401610390565b60405163a9059cbb60e01b81526001600160a01b0383811660048301526024820183905284169063a9059cbb906044016020604051808303816000875af1158015611cad573d6000803e3d6000fd5b505050506040513d601f19601f820116820180604052508101906105499190612196565b6001600160a01b03811681146105ab57600080fd5b8035610ee081611cd1565b600060208284031215611d0357600080fd5b8135611b6a81611cd1565b600060208083528351606082850152805180608086015260005b81811015611d445782810184015186820160a001528301611d28565b50600060a082870101529185015160ff8116604086015291604095909501516060850152505050601f91909101601f19160160a00190565b60008060408385031215611d8f57600080fd5b8235611d9a81611cd1565b91506020830135611daa81611cd1565b809150509250929050565b634e487b7160e01b600052604160045260246000fd5b803560ff81168114610ee057600080fd5b600080600060608486031215611df157600080fd5b833567ffffffffffffffff80821115611e0957600080fd5b818601915086601f830112611e1d57600080fd5b813581811115611e2f57611e2f611db5565b604051601f8201601f19908116603f01168101908382118183101715611e5757611e57611db5565b81604052828152896020848701011115611e7057600080fd5b826020860160208301376000602084830101528097505050505050611e9760208501611ce6565b9150611ea560408501611dcb565b90509250925092565b60008060008060808587031215611ec457600080fd5b84359350602085013592506040850135611edd81611cd1565b91506060850135611eed81611cd1565b939692955090935050565b600060208284031215611f0a57600080fd5b5035919050565b60008060408385031215611f2457600080fd5b8235611f2f81611cd1565b9150611f3d60208401611dcb565b90509250929050565b6020808252600f908201526e139bdb91195b1959d85d1950d85b1b608a1b604082015260600190565b634e487b7160e01b600052601160045260246000fd5b808201808211156103e2576103e2611f6f565b600181811c90821680611fac57607f821691505b602082108103611fcc57634e487b7160e01b600052602260045260246000fd5b50919050565b818103818111156103e2576103e2611f6f565b60ff82811682821603908111156103e2576103e2611f6f565b601f82111561049557600081815260208120601f850160051c810160208610156120255750805b601f850160051c820191505b8181101561204457828155600101612031565b505050505050565b815167ffffffffffffffff81111561206657612066611db5565b61207a816120748454611f98565b84611ffe565b602080601f8311600181146120af57600084156120975750858301515b600019600386901b1c1916600185901b178555612044565b600085815260208120601f198616915b828110156120de578886015182559484019460019091019084016120bf565b50858210156120fc5787850151600019600388901b60f8161c191681555b5050505050600190811b01905550565b60ff81811683821601908111156103e2576103e2611f6f565b80820281158282048414176103e2576103e2611f6f565b600060ff821660ff810361215257612152611f6f565b60010192915050565b60006020828403121561216d57600080fd5b5051919050565b60008261219157634e487b7160e01b600052601260045260246000fd5b500490565b6000602082840312156121a857600080fd5b81518015158114611b6a57600080fdfea2646970667358221220c46adedd8dbbefab772da5cf8983c1ca407376d4b7a371e0d7a05a64e428229664736f6c63430008130033",
    "linkReferences": {}
  },
  "methodIdentifiers": {
    "addInheritor(string,address,uint8)": "4d6a6c05",
    "changeDuration(uint256)": "b594f086",
    "changeFromLastUpdate(uint256)": "76a162e8",
    "changeInheritorPersantage(address,uint8)": "903c939c",
    "changeMainInheritor(address)": "deb999a4",
    "didWithdraw(address,address)": "3dc0c9eb",
    "getAvailablePercentage()": "7d4d685d",
    "getDuration()": "ad2e8c9b",
    "getInheritor(address)": "1a61d4bb",
    "getInheritorCount()": "102a842a",
    "getInheritorPercentage(address)": "6c0007fd",
    "getLastUpdate()": "4c89867f",
    "getRequestWithdraw()": "7b3fc775",
    "getYourCurrentAmount(address)": "62394b02",
    "inheritorWithdraw(address)": "b6a2b4f2",
    "init(uint256,uint256,address,address)": "648bc268",
    "initiated()": "9f118536",
    "isWithdrawMode()": "3824438a",
    "mainInheritor()": "a6429e3e",
    "owner()": "8da5cb5b",
    "pauseWithdraw()": "6155e3de",
    "removeInheritor(address)": "cf701f31",
    "requestToWithdraw()": "009109ae",
    "self()": "7104ddb2"
  },
  "id": 24
}