{
  "abi": [
    {
      "stateMutability": "payable",
      "type": "fallback"
    },
    {
      "inputs": [
        {
          "internalType": "address",
          "name": "logic",
          "type": "address"
        },
        {
          "internalType": "uint256",
          "name": "_duration",
          "type": "uint256"
        },
        {
          "internalType": "uint256",
          "name": "_fromLastUpdate",
          "type": "uint256"
        },
        {
          "internalType": "address",
          "name": "_mainInheritor",
          "type": "address"
        },
        {
          "internalType": "address",
          "name": "_owner",
          "type": "address"
        }
      ],
      "name": "init",
      "outputs": [],
      "stateMutability": "nonpayable",
      "type": "function"
    },
    {
      "stateMutability": "payable",
      "type": "receive"
    }
  ],
  "bytecode": {
    "object": "0x608060405234801561001057600080fd5b5061023b806100206000396000f3fe6080604052600436106100225760003560e01c806301c580e41461005c57610029565b3661002957005b600080546001600160a01b03169036908037600080366000845af43d6000803e808015610055573d6000f35b3d6000fd5b005b34801561006857600080fd5b5061005a61007736600461017f565b60405160248101859052604481018490526001600160a01b0380841660648301528216608482015260009060a40160408051601f198184030181529181526020820180516001600160e01b0316630c91784d60e31b179052519091506000906001600160a01b038816906100ec9084906101d6565b600060405180830381855af49150503d8060008114610127576040519150601f19603f3d011682016040523d82523d6000602084013e61012c565b606091505b505090508061013a57600080fd5b5050600080546001600160a01b0319166001600160a01b03969096169590951790945550505050565b80356001600160a01b038116811461017a57600080fd5b919050565b600080600080600060a0868803121561019757600080fd5b6101a086610163565b945060208601359350604086013592506101bc60608701610163565b91506101ca60808701610163565b90509295509295909350565b6000825160005b818110156101f757602081860181015185830152016101dd565b50600092019182525091905056fea2646970667358221220a6b09e7f006558be740989fc5332d5086e67a164d33cc2bb62e56ba27a434f7464736f6c63430008130033",
    "linkReferences": {}
  },
  "methodIdentifiers": {
    "init(address,uint256,uint256,address,address)": "01c580e4"
  },
  "id": 28
}